:020000040800F2
:10000000002800207D2000086120000863200008EF
:100010006520000867200008692000080000000033
:100020000000000000000000000000006B2000083D
:100030006D200008000000006F20000871200008FB
:10004000C5200008C5200008C5200008C5200008FC
:10005000C5200008C5200008C5200008C5200008EC
:10006000C5200008C5200008C5200008C5200008DC
:10007000C5200008C5200008C5200008C5200008CC
:10008000C5200008C5200008C5200008C5200008BC
:10009000C5200008C5200008C5200008C5200008AC
:1000A000C5200008C5200008C5200008C52000089C
:1000B000C5200008C520000800000000C520000879
:1000C000C52000080000000000000000C520000856
:1000D00000000000C5200008C52000080000000046
:1000E000C5200008C5200008C52000080000000049
:1000F0000000000000000000000000000000000000
:0C01000000000000000000005FF808F1A3
:10010C0010B5054C237833B9044B13B10448AFF345
:10011C0000800123237010BD3C040020000000006F
:10012C009422000808B5034B1BB103490348AFF3F5
:10013C00008008BD0000000040040020942200084C
:10014C0080F0004002E000BF81F0004142001FBF80
:10015C005FEA410392EA030F7FEA226C7FEA236C89
:10016C006AD04FEA1262D2EB1363C1BFD21841407E
:10017C0048404140B8BF5B42192B88BF704710F014
:10018C00004F40F4000020F07F4018BF404211F0B7
:10019C00004F41F4000121F07F4118BF494292EA1F
:1001AC00030F3FD0A2F1010241FA03FC10EB0C004B
:1001BC00C3F1200301FA03F100F0004302D54942D8
:1001CC0060EB4000B0F5000F13D3B0F1807F06D385
:1001DC0040084FEA310102F10102FE2A51D2B1F17D
:1001EC00004F40EBC25008BF20F0010040EA030072
:1001FC007047490040EB0000013A28BFB0F5000FF2
:10020C00EDD2B0FA80FCACF1080CB2EB0C0200FAA7
:10021C000CF0AABF00EBC25052421843BCBFD040F6
:10022C001843704792F0000F81F4000106BF80F470
:10023C0000000132013BB5E74FEA41037FEA226C33
:10024C0018BF7FEA236C21D092EA030F04D092F0FE
:10025C00000F08BF0846704790EA010F1CBF002032
:10026C00704712F07F4F04D1400028BF40F000408F
:10027C00704712F100723CBF00F50000704700F0AF
:10028C00004343F0FE4040F4000070477FEA2262D6
:10029C0016BF08467FEA23630146420206BF5FEAA7
:1002AC00412390EA010F40F4800070474FF00003A7
:1002BC0004E000BF10F0004348BF40425FEA000C6E
:1002CC0008BF704743F0964301464FF000001CE016
:1002DC0050EA010208BF70474FF000030AE000BF6C
:1002EC0050EA010208BF704711F0004302D54042AA
:1002FC0061EB41015FEA010C02BF8446014600201C
:10030C0043F0B64308BFA3F18053A3F50003BCFA36
:10031C008CF2083AA3EBC25310DB01FA02FC6344E3
:10032C0000FA02FCC2F12002BCF1004F20FA02F2EA
:10033C0043EB020008BF20F00100704702F12002DD
:10034C0001FA02FCC2F1200250EA4C0021FA02F23E
:10035C0043EB020008BF20EADC7070474FF0FF0C43
:10036C001CEAD0521EBF1CEAD15392EA0C0F93EA3E
:10037C000C0F6FD01A4480EA010C400218BF5FEAE0
:10038C0041211ED04FF0006343EA501043EA511153
:10039C00A0FB01310CF00040B1F5000F3EBF49004D
:1003AC0041EAD3715B0040EA010062F17F02FD2A51
:1003BC001DD8B3F1004F40EBC25008BF20F0010034
:1003CC00704790F0000F0CF0004C08BF49024CEA4B
:1003DC00502040EA51207F3AC2BFD2F1FF0340EADD
:1003EC00C250704740F400004FF00003013A5DDC4E
:1003FC0012F1190FDCBF00F000407047C2F100028F
:10040C00410021FA02F1C2F1200200FA02FC5FEA7B
:10041C00310040F1000053EA4C0308BF20EADC70C5
:10042C00704792F0000F00F0004C02BF400010F437
:10043C00000F013AF9D040EA0C0093F0000F01F0E4
:10044C00004C02BF490011F4000F013BF9D041EA06
:10045C000C018FE70CEAD15392EA0C0F18BF93EA08
:10046C000C0F0AD030F0004C18BF31F0004CD8D132
:10047C0080EA010000F00040704790F0000F17BFB9
:10048C0090F0004F084691F0000F91F0004F14D0FF
:10049C0092EA0C0F01D142020FD193EA0C0F03D157
:1004AC004B0218BF084608D180EA010000F000405A
:1004BC0040F0FE4040F40000704740F0FE4040F435
:1004CC00400070474FF0FF0C1CEAD0521EBF1CEAD4
:1004DC00D15392EA0C0F93EA0C0F69D0A2EB0302F2
:1004EC0080EA010C49024FEA402037D04FF080538C
:1004FC0043EA111143EA10130CF000408B4238BF51
:10050C005B0042F17D024FF4000C8B4224BF5B1A5E
:10051C0040EA0C00B3EB510F24BFA3EB510340EAAC
:10052C005C00B3EB910F24BFA3EB910340EA9C005A
:10053C00B3EBD10F24BFA3EBD10340EADC001B01CA
:10054C0018BF5FEA1C1CE0D1FD2A3FF650AF8B426E
:10055C0040EBC25008BF20F0010070470CF0004C7B
:10056C004CEA50207F32C2BFD2F1FF0340EAC250A6
:10057C00704740F400004FF00003013A37E792F067
:10058C00000F00F0004C02BF400010F4000F013AC5
:10059C00F9D040EA0C0093F0000F01F0004C02BFC0
:1005AC00490011F4000F013BF9D041EA0C0195E729
:1005BC000CEAD15392EA0C0F08D142027FF47DAFC2
:1005CC0093EA0C0F7FF470AF084676E793EA0C0FB2
:1005DC0004D14B023FF44CAF08466EE730F0004CB0
:1005EC0018BF31F0004CCAD130F000427FF45CAF40
:1005FC0031F000437FF43CAF5FE700BF4FF0FF3CAE
:10060C0006E000BF4FF0010C02E000BF4FF0010C00
:10061C004DF804CD4FEA40024FEA41037FEA226CC9
:10062C0018BF7FEA236C11D001B052EA530C18BFEB
:10063C0090EA010F58BFB2EB030088BFC81738BF50
:10064C006FEAE17018BF40F0010070477FEA226C3E
:10065C0002D15FEA402C05D17FEA236CE4D15FEA3A
:10066C00412CE1D05DF8040B704700BF844608466E
:10067C006146FFE70FB5FFF7C9FF002848BF10F12F
:10068C00000F0FBD4DF808EDFFF7F4FF0CBF012074
:10069C0000205DF808FB00BF4DF808EDFFF7EAFFFE
:1006AC0034BF012000205DF808FB00BF4DF808EDB9
:1006BC00FFF7E0FF94BF012000205DF808FB00BFAE
:1006CC004DF808EDFFF7D2FF94BF012000205DF834
:1006DC0008FB00BF4DF808EDFFF7C8FF34BF012041
:1006EC0000205DF808FB00BF10B504460E4B1878CF
:1006FC004FF47A73B3FBF0F30C4A1068B0FBF3F0D1
:10070C0000F056FB68B90F2C01D901200AE0002239
:10071C0021464FF0FF3000F013FB054B1C6000200E
:10072C0000E0012010BD00BF0000002008000020E8
:10073C000400002008B5074A136843F01003136047
:10074C00032000F0EBFA0F20FFF7CEFF01F0F2FBD5
:10075C00002008BD00200240034A1168034B1B789F
:10076C000B441360704700BF5804002000000020A9
:10077C00014B1868704700BF58040020F0B583B0D7
:10078C0005460C4600230193FFF7F2FF2B689A688D
:10079C0012F4807F23D107465A6812F4807F03D16C
:1007AC00DB6A13F4700F29D0504B1E68022000F046
:1007BC00D1FFB6FBF0F62B6819694D4A114236D1C0
:1007CC00D96802F15C42114231D11969494A11428E
:1007DC0040D1DA68484B1A423ED0292041E0AB6A3E
:1007EC0043F02003AB62002385F82430012003B0D2
:1007FC00F0BD2B681B6813F0020F0FD02B681B6821
:10080C0013F0020F4FD1B4F1FF3FF7D0002CF0D012
:10081C00FFF7AEFFC31BA342F0D9EAE7AB6A43F084
:10082C000403AB62002385F824300320DFE7196949
:10083C00304A114204D1D96802F16E4211420DD0F6
:10084C0019692E4A0A405AB9DA682C4B13405BB12D
:10085C00FC2006E0292004E0142002E0542000E0F3
:10086C00FC2000FB06F607E05420FAE7019BB3429C
:10087C0010D3019B01330193019BB34213D2B4F10A
:10088C00FF3FF6D0002CF1D0FFF772FFC01BA04247
:10089C00EFD9EBE7AB6A43F00403AB62002385F8B6
:1008AC0024300320A3E72B686FF012021A60AB6AA6
:1008BC0043F40073AB622B689B6803F46023B3F5BD
:1008CC00602F01D0002092E7287B60B9AB6A23F43B
:1008DC008073AB62AB6A13F4805F88D1AB6A43F070
:1008EC000103AB6283E7002081E700BF0800002012
:1008FC0024499224922449129224490049922400BA
:10090C000368D86C7047000030B482B000220192AA
:10091C0090F82420012A00F091800346012280F8EF
:10092C0024204A68062A2DD80468606B02EB8202E8
:10093C00053A4FF01F0C0CFA02FC20EA0C000D6873
:10094C0005FA02F2024362630A68092A3AD91C6862
:10095C00E06802EB42021E3A4FF0070C0CFA02FC64
:10096C0020EA0C008D6805FA02F20243E2600A6884
:10097C00103A012A36D90020002283F8242002B034
:10098C0030BC70470C2A0ED80568286B02EB82022B
:10099C00233A1F24944020EA04000C6804FA02F263
:1009AC0002432A63D0E70568E86A02EB8202413A07
:1009BC001F24944020EA04000C6804FA02F202435B
:1009CC00EA62C1E71C68206902EB42024FF0070C97
:1009DC000CFA02FC20EA0C008D6805FA02F20243C4
:1009EC002261C4E71A681648824205D09A6A42F01E
:1009FC0020029A620120BFE7906810F4000F1BD10F
:100A0C00906840F4000090600A68102A01D0002021
:100A1C00B2E70C4A12680C49A1FB0212920C02EBD1
:100A2C0082025200019202E0019A013A0192019A6B
:100A3C00002AF9D100209FE700209DE702209EE7C5
:100A4C00002401400800002083DE1B4330B583B036
:100A5C000023019303689A6812F0010F33D1044606
:100A6C009A6842F001029A60184B1B68184AA2FB64
:100A7C0003239B0C019302E0019B013B0193019B1F
:100A8C00002BF9D1FFF774FE054623689B6813F021
:100A9C00010F16D1FFF76CFE431B022BF5D923680F
:100AAC009B6813F0010FF0D1A36A43F01003A3620B
:100ABC00E36A43F00103E362002384F8243001204D
:100ACC0002E0002000E0002003B030BD0800002050
:100ADC0083DE1B4390F82430012B68D010B50446FC
:100AEC00012380F82430FFF7B1FF00285BD1A36A03
:100AFC0023F4407323F0010343F48073A36223684F
:100B0C002C4A934227D0A26A22F48012A2625A681D
:100B1C0012F4806F05D0A26A22F4405242F4805243
:100B2C00A262A26A12F4805F2BD0E26A22F0060263
:100B3C00E262002284F824206FF002021A6023681B
:100B4C009A6802F46022B2F5602F1DD09A6842F4C4
:100B5C0080129A602AE0A2F58062526812F4702F1B
:100B6C00D1D0A26A42F48012A262134A526812F4E3
:100B7C00806FD6D0A26A22F4405242F48052A26214
:100B8C00CFE70022E262D4E70A4A934204D09A6883
:100B9C0042F4A0029A6009E0A2F58062526812F455
:100BAC00702FD3D1F3E7002384F8243010BD02203A
:100BBC00704700BF002801400024014038B503688D
:100BCC009A6812F0010F01D1002038BD04469A68D2
:100BDC0022F001029A60FFF7CBFD054623689B6863
:100BEC0013F0010F13D0FFF7C3FD431B022BF5D9F4
:100BFC0023689B6813F0010FF0D0A36A43F0100335
:100C0C00A362E36A43F00103E3620120DDE7002005
:100C1C00DBE7000000287BD070B50446836A002B0C
:100C2C004DD02046FFF7CAFFA36A13F0100369D119
:100C3C00002867D1A26A22F4885222F0020242F004
:100C4C000202A2626268E1690A43217B42EA410224
:100C5C00A568B5F5807F02D0012D36D01D46267DC6
:100C6C00012E35D02668716821F4694129437160E1
:100C7C002568AE68274931401143A960A168B1F5D8
:100C8C00807F01D0012902D12369013B1B05256816
:100C9C00E96A21F470010B43EB62236899681E4BDF
:100CAC000B409A4225D0A36A23F0120343F01003A1
:100CBC00A362E36A43F00103E362012027E0C3620D
:100CCC0080F8243001F058F9ABE74FF48075C6E793
:100CDC0031B9A169013945EA413141F40065C1E7F7
:100CEC00A16A41F02001A162E16A41F00101E162D7
:100CFC00B8E70023E362A36A23F0030343F0010384
:100D0C00A36204E0A36A43F01003A362012070BD48
:100D1C0001207047FDF7E1FFFE0E1FFF074AD36865
:100D2C0023F4E0631B041B0C000200F4E06003439B
:100D3C0043F0BF6343F40033D360704700ED00E031
:100D4C0000B5194BDB68C3F30223C3F1070CBCF1EC
:100D5C00040F28BF4FF0040C03F1040EBEF1060F74
:100D6C0018D9033B4FF0FF3E0EFA0CFC21EA0C01A4
:100D7C0099400EFA03F322EA0303194300280BDB14
:100D8C000901C9B200F1604000F5614080F8001320
:100D9C005DF804FB0023E5E700F00F000901C9B280
:100DAC00024B1954F4E700BF00ED00E014ED00E035
:100DBC000138B0F1807F0BD24FF0E0235861054A27
:100DCC00F02182F823100020986107221A617047E5
:100DDC000120704700ED00E070B582B00024A446FD
:100DEC008BE07F4DAA4210D007D97E4DAA420CD081
:100DFC0005F58035AA4208D015E0A5F58015AA4264
:100E0C0003D005F57025AA4209D18A68002A00F0A2
:100E1C00BF80012A00F0B7804361082403E0A5F5E8
:100E2C008015AA42F1D0BEF1FF0F00F2B380064646
:100E3C00BEF1FF0F00F2B0804FEA8C0233680F2531
:100E4C00954023EA050304FA02F2134333604B681E
:100E5C0013F0805F4FD0644B9A6942F001029A61A3
:100E6C009B6903F001030193019B4FEA9C02951CC3
:100E7C005E4B53F825600CF003039D000F23AB4031
:100E8C0026EA03065A4B984200F08C8003F58063E7
:100E9C00984200F0898003F58063984200F08080CE
:100EAC000323AB4033430232504D45F822304B689C
:100EBC0013F4803F7AD04F4A136843EA0E03136051
:100ECC004B6813F4003F77D04A4A536843EA0E0349
:100EDC0053604B6813F4801F74D0464A936843EAFE
:100EEC000E0393604B6813F4001F71D0414AD36812
:100EFC0043EA0E03D3600CF1010C0A6832FA0CF3CE
:100F0C006CD0012303FA0CF302EA030E33EA02025B
:100F1C00F1D14A68122A3FF664AF122A83D801A590
:100F2C0055F822F0170E00087D0F0008870F0008F7
:100F3C00990F0008330E0008330E0008330E00081A
:100F4C00330E0008330E0008330E0008330E000871
:100F5C00330E0008330E0008330E0008330E000861
:100F6C00330E0008330E0008810F00088D0F0008A7
:100F7C00CC6858E7CC68043455E7CC68083452E7A1
:100F8C00CC680C344FE7036108244CE700244AE793
:100F9C00042448E7061D4BE7ACF1080292004DE72C
:100FAC0002237EE700237CE701237AE7114A1368CA
:100FBC0023EA0E03136083E70E4A536823EA0E03F9
:100FCC00536086E70B4A936823EA0E03936089E724
:100FDC00084AD36823EA0E03D3608CE702B070BDD5
:100FEC0000002210000031100010024000000140EF
:100FFC00000801400004014082B0084B1B68084AFD
:10100C00A2FB03235B0A00FB03F3019300BF019BCC
:10101C005A1E0192002BF9D102B070470800002033
:10102C00D34D6210002800F0F18170B582B00446F7
:10103C00036813F0010F2CD0994B5B6803F00C0381
:10104C00042B1DD0964B5B6803F00C03082B12D0BD
:10105C006368B3F5803F41D0002B55D103F1804339
:10106C0003F504331A6822F480321A601A6822F4E9
:10107C0080221A6037E08A4B5B6813F4803FE7D01C
:10108C00874B1B6813F4003F03D06368002B00F000
:10109C00BF81236813F0020F75D0814B5B6813F08E
:1010AC000C0F5FD07E4B5B6803F00C03082B54D005
:1010BC002369002B00F08A807A4B01221A60FFF71B
:1010CC0057FB0546764B1B6813F0020F75D1FFF7E3
:1010DC004FFB401B0228F5D903209EE1704A136890
:1010EC0043F480331360636843B3FFF741FB054659
:1010FC006B4B1B6813F4003FCBD1FFF739FB401B44
:10110C006428F5D9032088E1B3F5A02F09D0644BEE
:10111C001A6822F480321A601A6822F480221A604B
:10112C00E1E703F18043A3F53C331A6842F48022D3
:10113C001A601A6842F480321A60D4E7FFF718FB81
:10114C000546574B1B6813F4003FA2D0FFF710FB6A
:10115C00401B6428F5D903205FE1514B5B6813F405
:10116C00803FA5D14E4B1B6813F0020F03D02369AF
:10117C00012B40F04F814A4A136823F0F803616950
:10118C0043EAC1031360236813F0080F33D0A3693B
:10119C00002B5CD0434B0122C3F88024FFF7E8FA04
:1011AC0005463F4B5B6A13F0020F21D1FFF7E0FAC3
:1011BC00401B0228F5D903202FE1394A136823F08C
:1011CC00F803616943EAC1031360DCE7354B002285
:1011DC001A60FFF7CDFA0546314B1B6813F0020F6E
:1011EC00D1D0FFF7C5FA401B0228F5D9032014E132
:1011FC000120FFF701FF236813F0040F00F0968025
:10120C00274BDB6913F0805F34D1254BDA6942F050
:10121C008052DA61DB6903F080530193019B012555
:10122C00214B1B6813F4807F26D0E368012B3DD043
:10123C00002B53D103F1804303F504331A6A22F0D7
:10124C0001021A621A6A22F004021A6233E0154B88
:10125C000022C3F88024FFF78BFA0546104B5B6A1B
:10126C0013F0020FC7D0FFF783FA401B0228F5D901
:10127C000320D2E00025D3E70B4A136843F48073B4
:10128C001360FFF775FA0646074B1B6813F4807F53
:10129C00CBD1FFF76DFA801B6428F5D90320BCE095
:1012AC000010024000004242007000405F4A136A86
:1012BC0043F001031362E36833B3FFF759FA0646B0
:1012CC005A4B1B6A13F0020F2FD1FFF751FA801BF8
:1012DC0041F288339842F3D903209EE0052B09D0C4
:1012EC00524B1A6A22F001021A621A6A22F00402A4
:1012FC001A62E0E74D4B1A6A42F004021A621A6A4B
:10130C0042F001021A62D6E7FFF732FA0646474B63
:10131C001B6A13F0020F08D0FFF72AFA801B41F268
:10132C0088339842F3D9032077E0E5B9E369002BC1
:10133C0072D03E4A526802F00C02082A56D0022B98
:10134C0017D03B4B00221A66FFF712FA0446374BB4
:10135C001B6813F0007F47D0FFF70AFA001B022826
:10136C00F5D9032059E0314AD36923F08053D36176
:10137C00DCE72F4B00221A66FFF7FAF905462B4BD8
:10138C001B6813F0007F06D0FFF7F2F9401B022810
:10139C00F5D9032041E0236AB3F5803F1AD02349E5
:1013AC004B6823F47413226A606A024313434B6044
:1013BC001F4B01221A66FFF7DBF904461B4B1B6817
:1013CC0013F0007F0ED1FFF7D3F9001B0228F5D9DB
:1013DC00032022E0154A536823F40033A1680B4321
:1013EC005360DCE7002018E0002016E0012B16D03B
:1013FC000E4B5B6803F48031226A914211D103F4E5
:10140C007013626A93420ED1002006E001207047EF
:10141C00012002E0012000E0002002B070BD01209C
:10142C00FBE70120F9E70120F7E700BF00100240BD
:10143C000000424286B0174B0FCB0DF1180C0CE993
:10144C000F0040F20123ADF80430134B5B6803F03E
:10145C000C02082A02D0114806B07047C3F383422D
:10146C0018326A4412F8100C13F4803F0DD00A4B5A
:10147C005B68C3F3404318336B4413F8143C074ABE
:10148C0002FB00F0B0FBF3F0E6E7054B03FB00F0CA
:10149C00E2E700BFAC2200080010024000127A0004
:1014AC0000093D00002800F0A08070B50D460446F0
:1014BC00524B1B6803F007038B420BD24F4A136845
:1014CC0023F007030B431360136803F007038B42ED
:1014DC0040F08D80236813F0020F17D013F0040F27
:1014EC0004D0474A536843F4E0635360236813F015
:1014FC00080F04D0424A536843F460535360404A87
:10150C00536823F0F003A1680B435360236813F076
:10151C00010F31D06368012B20D0022B25D0384A23
:10152C00126812F0020F64D035494A6822F00302A7
:10153C0013434B60FFF71CF90646314B5B6803F015
:10154C000C036268B3EB820F16D0FFF711F9801B06
:10155C0041F288339842F0D9032045E0284A1268BA
:10156C0012F4003FE0D101203EE0254A126812F04F
:10157C00007FD9D1012037E0204B1B6803F0070313
:10158C00AB420AD91D4A136823F007032B4313609F
:10159C00136803F00703AB422DD1236813F0040F3B
:1015AC0006D0174A536823F4E063E1680B43536099
:1015BC00236813F0080F07D0114A536823F46053C3
:1015CC00216943EAC1035360FFF734FF0C4B5B689E
:1015DC00C3F303130B4AD35CD8400B4B18600B4B73
:1015EC001868FFF781F8002070BD012070470120BA
:1015FC00FAE70120F8E70120F6E700BF00200240DF
:10160C0000100240C0220008080000200400002046
:10161C00014B1868704700BF0800002008B5FFF7A1
:10162C00F7FF044B5B68C3F3C223034AD35CD84077
:10163C0008BD00BF00100240D022000870B582B077
:10164C000446036813F0010F36D03F4BDB6913F0EF
:10165C00805F49D13C4BDA6942F08052DA61DB6938
:10166C0003F080530193019B0125384B1B6813F445
:10167C00807F3BD0344B1B6A13F4407313D06268E9
:10168C0002F440729A420ED02F4A136A23F440702F
:10169C002F490126C1F840640026C1F8406410624D
:1016AC0013F0010F36D1284A136A23F44073616892
:1016BC000B431362002D3ED1236813F0020F06D0AA
:1016CC00214A536823F44043A1680B4353602368B9
:1016DC0013F0100F34D01C4A536823F48003E168D4
:1016EC000B43536000202CE00025BEE7174A13681B
:1016FC0043F480731360FFF73BF80646134B1B68EB
:10170C0013F4807FB6D1FFF733F8801B6428F5D92A
:10171C00032016E0FFF72CF806460B4B1B6A13F060
:10172C00020FC0D1FFF724F8801B41F28833984296
:10173C00F3D9032005E0D36923F08053D361BBE7D1
:10174C00002002B070BD00BF0010024000700040CD
:10175C000000424200B587B08446394B0FCB0DF1E7
:10176C00180E0EE90F0040F20123ADF80430BCF165
:10177C00020F56D0BCF1100F06D0BCF1010F2ED0C9
:10178C00002007B05DF804FB2E4B5A68186810F067
:10179C008070F6D0C2F3834318336B4413F8100CEB
:1017AC0012F4803F17D0274B5B68C3F340431833C8
:1017BC006B4413F8142C244BB3FBF2F303FB00F033
:1017CC00204B5B6813F4800FDBD140001F4BA3FB55
:1017DC0000304008D5E71E4B03FB00F0F0E7194B37
:1017EC001B6A40F202321A40B2F5817F24D003F416
:1017FC004073B3F5007F04D0B3F5407F09D00020CF
:10180C00BFE7104A526A12F0020FF5D049F6404079
:10181C00B7E70C4B186810F40030B2D04FF22440EC
:10182C00AFE7FFF7FBFE074B5B68C3F38133013374
:10183C005B00B0FBF3F0A4E74FF40040A1E700BF5E
:10184C00AC2200080010024000127A00ABAAAAAA2F
:10185C0000093D0070B4036A23F001030362036ABC
:10186C004668826922F073020C6844EA020523F090
:10187C0002028B6813430D4CA04209D00B4CA042C2
:10188C000DD0466085614A684263036270BC704744
:10189C0023F00803CA68134323F00403EEE726F48D
:1018AC0040764A6932438E691643EAE7002C0140C0
:1018BC0030B4036A23F480730362036A4568C26917
:1018CC0022F073020C68224323F400738C6843EA01
:1018DC0004230F4CA04209D00D4CA0420ED0456001
:1018EC00C2614A68C263036230BC704723F4006370
:1018FC00CC6843EA042323F48063EDE725F44055D8
:10190C004C6945EA04158C6945EA0415E7E700BF04
:10191C00002C014030B4036A23F480530362036A41
:10192C004468C26922F4E6420D6842EA052223F4B7
:10193C0000538D6843EA0533074DA84206D0446036
:10194C00C2614A680264036230BC704724F480446C
:10195C004D6944EA8514F2E7002C01400368174AEC
:10196C00904206D0B0F1804F03D0A2F59432904251
:10197C0003D123F070034A681343104A904206D0F7
:10198C00B0F1804F03D0A2F59432904203D123F4EE
:10199C004073CA68134323F080034A6913430360FE
:1019AC008B68C3620B688362044B984202D001239C
:1019BC00436170470B690363F9E700BF002C0140DA
:1019CC0040B310B5044690F83D30F3B1022384F8CF
:1019DC003D30214651F8040BFFF7C0FF012384F87A
:1019EC00463084F83E3084F83F3084F8403084F838
:1019FC00413084F8423084F8433084F8443084F821
:101A0C00453084F83D30002010BD80F83C3000F0AB
:101A1C00E3FADBE70120704730B4036A23F01003CC
:101A2C000362036A4468826922F4E6420D6842EA62
:101A3C00052223F020038D6843EA05130E4DA842BE
:101A4C0009D00D4DA8420ED0446082614A68826371
:101A5C00036230BC704723F08003CD6843EA051362
:101A6C0023F04003EDE724F440644D6944EA850417
:101A7C008D6944EA8504E7E7002C014038B590F8FD
:101A8C003C30012B60D004460D46012380F83C30DD
:101A9C000C2A1AD8DFE802F0071919191D1919199F
:101AAC003119191944000068FFF7D4FE22689369B4
:101ABC0043F0080393612268936923F00403936154
:101ACC002268936929690B439361002084F83C00D8
:101ADC0038BD0068FFF7A0FF2268936943F40063E8
:101AEC0093612268936923F48063936122689369FC
:101AFC00296943EA01239361E7E70068FFF7D8FE01
:101B0C002268D36943F00803D3612268D36923F0B8
:101B1C000403D3612268D36929690B43D361D4E7E9
:101B2C000068FFF7F7FE2268D36943F40063D361C2
:101B3C002268D36923F48063D3612268D36929694D
:101B4C0043EA0123D361C0E70220C1E701F01F0182
:101B5C00012303FA01FC036A23EA0C030362036A00
:101B6C0002FA01F10B4303627047000010B5044602
:101B7C00084631BB94F83E30DBB2013B18BF012361
:101B8C00002B57D1002835D1022384F83E30012296
:101B9C0001462068FFF7DAFF2368284A934239D0C0
:101BAC002368264A93423AD0B3F1804F37D0A2F53E
:101BBC009432934233D01A6842F001021A6000202A
:101BCC0039E0042908D008290DD094F84130DBB253
:101BDC00013B18BF0123D3E794F83F30DBB2013B44
:101BEC0018BF0123CCE794F84030DBB2013B18BF9F
:101BFC000123C5E7042805D0082807D0022384F860
:101C0C004130C4E7022384F83F30C0E7022384F854
:101C1C004030BCE75A6C42F400425A64C0E79A6800
:101C2C0002F00702062A07D01A6842F001021A6075
:101C3C00002000E0012010BD0020FCE7002C01403A
:101C4C0090F83C30012B28D010B4012380F83C30A4
:101C5C00022380F83D3003685A689C6822F0700CAF
:101C6C000A6842EA0C025A6003680D4A934206D095
:101C7C00B3F1804F03D0A2F59432934204D124F0F7
:101C8C0080044A6814439C60012380F83D30002393
:101C9C0080F83C30184610BC70470220704700BFDB
:101CAC00002C014090F83C30012B22D0012380F80D
:101CBC003C30CB6823F440738A68134323F480636D
:101CCC004A68134323F400630A68134323F48053D4
:101CDC000A69134323F400534A69134323F48043E2
:101CEC00CA69134302685364002380F83C301846D9
:101CFC00704702207047000082B0064B9A6942F090
:101D0C0004029A619B6903F004030193019B02B0E6
:101D1C00704700BF0010024072B6FEE710B592B0DB
:101D2C0000241094119409940A940B940C940D941F
:101D3C000E940F942022214601A800F0E3F92148CB
:101D4C00214B036001234360846040F2E733C3609E
:101D5C00046144618461FFF733FE002829D100231C
:101D6C001093119310A91748FFF76AFF18BB602353
:101D7C00099300220A920B920C920D920E920F92E2
:101D8C0009A91048FFF77AFEB8B900230193029312
:101D9C000393049305934FF400520692089301A900
:101DAC000848FFF77FFF50B9064800F02BF912B036
:101DBC0010BDFFF7B1FFFFF7AFFFFFF7ADFFFFF768
:101DCC00ABFF00BF8C040020002C014000B585B097
:101DDC0000230193029303931048114A026083601D
:101DEC00037303754FF46022C261436001230361E6
:101DFC00FEF710FF68B90723019301230293002318
:101E0C00039301A90548FEF77FFD20B905B05DF8E5
:101E1C0004FBFFF781FFFFF77FFF00BF5C0400208E
:101E2C000024014000B595B0282200210DEB0200E2
:101E3C0000F068F900230593069307930893099320
:101E4C00019302930393049302230A9301220E92AB
:101E5C0010220F9211934FF4E01313930AA8FFF77B
:101E6C00E1F8D0B90F2305930223069300230793BF
:101E7C004FF4806208920993012105A8FFF712FB29
:101E8C0068B9022301934FF48043039301A8FFF731
:101E9C00D5FB30B915B05DF804FBFFF73DFFFFF73C
:101EAC003BFFFFF739FF000010B5FEF743FCFFF7CF
:101EBC00B9FFFFF721FFFFF731FFFFF787FF002185
:101ECC001548FFF753FE02E0144B05225A63144CDD
:101EDC002046FEF7FFFD01212046FEF74FFC204671
:101EEC00FEF70EFDFEF7E2F90E49FEF737FA0E4942
:101EFC00FEF7E8FA04460D49FEF7ECFB0028E3D1A7
:101F0C000B492046FEF7C8FB0028E0D0034B40F2FB
:101F1C00E2325A63DBE700BF8C040020002C014046
:101F2C005C0400200000204200F07F453333034165
:101F3C009A99F94082B00E4B9A6942F001029A616B
:101F4C009A6902F001020092009ADA6942F080521A
:101F5C00DA61DB6903F080530193019B054A5368F6
:101F6C0023F0E06343F08063536002B0704700BF1E
:101F7C00001002400000014000B587B0002302931E
:101F8C000393049305930268114B9A4202D007B055
:101F9C005DF804FB03F56C439A6942F400729A6194
:101FAC009A6902F400720092009A9A6942F0040253
:101FBC009A619B6903F004030193019B80230293B4
:101FCC000323039302A90348FEF706FFDFE700BFD4
:101FDC0000240140000801400268094B9A4200D0DD
:101FEC00704782B003F564439A6942F400629A61C7
:101FFC009B6903F400630193019B02B0704700BF1F
:10200C00002C014000B587B0002302930393049386
:10201C00059302680D4B9A4202D007B05DF804FBA1
:10202C0003F564439A6942F004029A619B6903F0D8
:10203C0004030193019B4FF48073029302230393D7
:10204C00059302A90248FEF7C7FEE6E7002C014003
:10205C0000080140FEE7FEE7FEE7FEE7FEE77047FB
:10206C007047704708B5FEF777FB08BD7047000056
:10207C000C480D490D4A002302E0D458C4500433D7
:10208C00C4188C42F9D30A4A0A4C002301E01360AD
:10209C000432A242FBD3FFF7E9FF00F00FF8FFF781
:1020AC0003FF7047000000203C040020E8220008D9
:1020BC003C040020D8040020FEE7000070B50D4E53
:1020CC000D4D761BB61006D0002455F8043B013498
:1020DC009847A642F9D1094E094D00F0D5F8761B68
:1020EC00B61006D0002455F8043B01349847A6429C
:1020FC00F9D170BDDC220008DC220008E4220008C3
:10210C00DC220008830730B548D0541E002A3FD08B
:10211C000346CAB201E0013C3AD303F8012B9D07F8
:10212C00F9D1032C2DD9CDB245EA05250F2C45EA62
:10213C00054536D9A4F1100222F00F0C03F1200E44
:10214C00E6444FEA121C03F1100242E9045542E93D
:10215C00025510327245F8D10CF1010214F00C0F3B
:10216C0003EB021204F00F0C13D0ACF1040323F0B8
:10217C0003030433134442F8045B9342FBD10CF089
:10218C0003042CB1CAB21C4403F8012B9C42FBD1B2
:10219C0030BD64461346002CF4D1F9E703461446CF
:1021AC00BFE71A46A446E0E7024B13B1024800F021
:1021BC0005B8704700000000D52100080023014637
:1021CC001A46184600F01AB838B5084B084D5B1B78
:1021DC009C1007D0043B1D44013C55F8043998472A
:1021EC00002CF9D1BDE8384000F054B8E8220008C2
:1021FC00E4220008704700BF704700BF2DE9F0478C
:10220C00DFF87CA00646DAF8000098460F469146A7
:10221C00FFF7F0FF1B4B1B68D3F8484124B36568EC
:10222C001F2D26DC5EB96B1C0235DAF800006360EA
:10223C0044F82570FFF7E0FF0020BDE8F08701238C
:10224C0004EB8501C1F88890D4F88821AB401A437F
:10225C00022EC4F88821C1F80881E4D1D4F88C216D
:10226C001343C4F88C31DEE703F5A674C3F8484178
:10227C00D5E7DAF80000FFF7BFFF4FF0FF30DCE7DF
:10228C0038040020D8220008F8B500BFF8BC08BC00
:10229C009E467047F8B500BFF8BC08BC9E46704718
:1022AC0002030405060708090A0B0C0D0E0F10108B
:1022BC000000000000000000000000000102030408
:1022CC0006070809000000000102030410000020AA
:0822DC00B521000831010008E2
:0422E4000D010008E0
:1022E80001000000100000000024F40000000000BD
:1022F80000000000FC02002064030020CC03002042
:1023080000000000000000000000000000000000C5
:1023180000000000000000000000000000000000B5
:1023280000000000000000000000000000000000A5
:102338000000000000000000000000000000000095
:102348000000000000000000000000000000000085
:102358000000000000000000000000000000000075
:102368000000000000000000000000000000000065
:102378000000000000000000000000000000000055
:102388000000000000000000000000000000000045
:102398000000000000000000010000000000000034
:1023A8000E33CDAB34126DE6ECDE05000B000000F9
:1023B8000000000000000000000000000000000015
:1023C8000000000000000000000000000000000005
:1023D80000000000000000000000000000000000F5
:1023E80000000000000000000000000000000000E5
:0C2718000000000000000000D4040020BD
:040000050800207D52
:00000001FF
